{
  "contractName": "Vault",
  "abi": [
    {
      "inputs": [],
      "stateMutability": "nonpayable",
      "type": "constructor"
    },
    {
      "anonymous": false,
      "inputs": [
        {
          "indexed": false,
          "internalType": "address",
          "name": "from",
          "type": "address"
        },
        {
          "indexed": false,
          "internalType": "string",
          "name": "password",
          "type": "string"
        },
        {
          "indexed": false,
          "internalType": "uint256",
          "name": "status",
          "type": "uint256"
        }
      ],
      "name": "Register",
      "type": "event"
    },
    {
      "anonymous": false,
      "inputs": [
        {
          "indexed": false,
          "internalType": "address",
          "name": "from",
          "type": "address"
        },
        {
          "indexed": false,
          "internalType": "address",
          "name": "to",
          "type": "address"
        },
        {
          "indexed": false,
          "internalType": "uint256",
          "name": "amount",
          "type": "uint256"
        }
      ],
      "name": "Transfer",
      "type": "event"
    },
    {
      "inputs": [
        {
          "internalType": "string",
          "name": "pwd",
          "type": "string"
        }
      ],
      "name": "register",
      "outputs": [
        {
          "internalType": "uint256",
          "name": "",
          "type": "uint256"
        }
      ],
      "stateMutability": "nonpayable",
      "type": "function"
    },
    {
      "inputs": [
        {
          "internalType": "string",
          "name": "pwd",
          "type": "string"
        }
      ],
      "name": "login",
      "outputs": [
        {
          "internalType": "uint256",
          "name": "",
          "type": "uint256"
        }
      ],
      "stateMutability": "view",
      "type": "function",
      "constant": true
    },
    {
      "inputs": [],
      "name": "deposit",
      "outputs": [],
      "stateMutability": "payable",
      "type": "function",
      "payable": true
    },
    {
      "inputs": [
        {
          "internalType": "address",
          "name": "to",
          "type": "address"
        },
        {
          "internalType": "uint256",
          "name": "amount",
          "type": "uint256"
        }
      ],
      "name": "transfer",
      "outputs": [],
      "stateMutability": "nonpayable",
      "type": "function"
    },
    {
      "inputs": [],
      "name": "balanceOfMe",
      "outputs": [
        {
          "internalType": "uint256",
          "name": "",
          "type": "uint256"
        }
      ],
      "stateMutability": "view",
      "type": "function",
      "constant": true
    }
  ],
  "bytecode": "0x608060405234801561001057600080fd5b50610bdf806100206000396000f3fe60806040526004361061004a5760003560e01c80630eb2b9c91461004f5780633a7d280c1461007a578063a9059cbb146100b7578063d0e30db0146100e0578063f2c298be146100ea575b600080fd5b34801561005b57600080fd5b50610064610127565b604051610071919061064b565b60405180910390f35b34801561008657600080fd5b506100a1600480360381019061009c91906107c0565b61016e565b6040516100ae919061064b565b60405180910390f35b3480156100c357600080fd5b506100de60048036038101906100d99190610893565b610245565b005b6100e861040d565b005b3480156100f657600080fd5b50610111600480360381019061010c91906107c0565b6104ab565b60405161011e919061064b565b60405180910390f35b6000600160003373ffffffffffffffffffffffffffffffffffffffff1673ffffffffffffffffffffffffffffffffffffffff16815260200190815260200160002054905090565b60008082604051602001610182919061094d565b60405160208183030381529060405280519060200120905060008060003373ffffffffffffffffffffffffffffffffffffffff1673ffffffffffffffffffffffffffffffffffffffff16815260200190815260200160002054036101ea576000915050610240565b600260003373ffffffffffffffffffffffffffffffffffffffff1673ffffffffffffffffffffffffffffffffffffffff16815260200190815260200160002054811461023a576001915050610240565b60029150505b919050565b600073ffffffffffffffffffffffffffffffffffffffff168273ffffffffffffffffffffffffffffffffffffffff160361027e57600080fd5b6000810361028b57600080fd5b80600160003373ffffffffffffffffffffffffffffffffffffffff1673ffffffffffffffffffffffffffffffffffffffff1681526020019081526020016000205410156102d757600080fd5b60016000808473ffffffffffffffffffffffffffffffffffffffff1673ffffffffffffffffffffffffffffffffffffffff168152602001908152602001600020541461032257600080fd5b80600160003373ffffffffffffffffffffffffffffffffffffffff1673ffffffffffffffffffffffffffffffffffffffff16815260200190815260200160002060008282546103719190610993565b9250508190555080600160008473ffffffffffffffffffffffffffffffffffffffff1673ffffffffffffffffffffffffffffffffffffffff16815260200190815260200160002060008282546103c791906109c7565b925050819055507fddf252ad1be2c89b69c2b068fc378daa952ba7f163c4a11628f55a4df523b3ef33838360405161040193929190610a2c565b60405180910390a15050565b600073ffffffffffffffffffffffffffffffffffffffff163373ffffffffffffffffffffffffffffffffffffffff160361044657600080fd5b6000340361045357600080fd5b34600160003373ffffffffffffffffffffffffffffffffffffffff1673ffffffffffffffffffffffffffffffffffffffff16815260200190815260200160002060008282546104a291906109c7565b92505081905550565b600080826040516020016104bf919061094d565b60405160208183030381529060405280519060200120905060016000803373ffffffffffffffffffffffffffffffffffffffff1673ffffffffffffffffffffffffffffffffffffffff1681526020019081526020016000205403610563577fd741a63ddb805bd1ed3216c3a05c67b4e900126b903e69169fe3940657d280c73384600060405161055193929190610af2565b60405180910390a1600091505061062d565b60016000803373ffffffffffffffffffffffffffffffffffffffff1673ffffffffffffffffffffffffffffffffffffffff1681526020019081526020016000208190555080600260003373ffffffffffffffffffffffffffffffffffffffff1673ffffffffffffffffffffffffffffffffffffffff168152602001908152602001600020819055507fd741a63ddb805bd1ed3216c3a05c67b4e900126b903e69169fe3940657d280c73384600160405161061f93929190610b6b565b60405180910390a160019150505b919050565b6000819050919050565b61064581610632565b82525050565b6000602082019050610660600083018461063c565b92915050565b6000604051905090565b600080fd5b600080fd5b600080fd5b600080fd5b6000601f19601f8301169050919050565b7f4e487b7100000000000000000000000000000000000000000000000000000000600052604160045260246000fd5b6106cd82610684565b810181811067ffffffffffffffff821117156106ec576106eb610695565b5b80604052505050565b60006106ff610666565b905061070b82826106c4565b919050565b600067ffffffffffffffff82111561072b5761072a610695565b5b61073482610684565b9050602081019050919050565b82818337600083830152505050565b600061076361075e84610710565b6106f5565b90508281526020810184848401111561077f5761077e61067f565b5b61078a848285610741565b509392505050565b600082601f8301126107a7576107a661067a565b5b81356107b7848260208601610750565b91505092915050565b6000602082840312156107d6576107d5610670565b5b600082013567ffffffffffffffff8111156107f4576107f3610675565b5b61080084828501610792565b91505092915050565b600073ffffffffffffffffffffffffffffffffffffffff82169050919050565b600061083482610809565b9050919050565b61084481610829565b811461084f57600080fd5b50565b6000813590506108618161083b565b92915050565b61087081610632565b811461087b57600080fd5b50565b60008135905061088d81610867565b92915050565b600080604083850312156108aa576108a9610670565b5b60006108b885828601610852565b92505060206108c98582860161087e565b9150509250929050565b600081519050919050565b600081905092915050565b60005b838110156109075780820151818401526020810190506108ec565b83811115610916576000848401525b50505050565b6000610927826108d3565b61093181856108de565b93506109418185602086016108e9565b80840191505092915050565b6000610959828461091c565b915081905092915050565b7f4e487b7100000000000000000000000000000000000000000000000000000000600052601160045260246000fd5b600061099e82610632565b91506109a983610632565b9250828210156109bc576109bb610964565b5b828203905092915050565b60006109d282610632565b91506109dd83610632565b9250827fffffffffffffffffffffffffffffffffffffffffffffffffffffffffffffffff03821115610a1257610a11610964565b5b828201905092915050565b610a2681610829565b82525050565b6000606082019050610a416000830186610a1d565b610a4e6020830185610a1d565b610a5b604083018461063c565b949350505050565b600082825260208201905092915050565b6000610a7f826108d3565b610a898185610a63565b9350610a998185602086016108e9565b610aa281610684565b840191505092915050565b6000819050919050565b6000819050919050565b6000610adc610ad7610ad284610aad565b610ab7565b610632565b9050919050565b610aec81610ac1565b82525050565b6000606082019050610b076000830186610a1d565b8181036020830152610b198185610a74565b9050610b286040830184610ae3565b949350505050565b6000819050919050565b6000610b55610b50610b4b84610b30565b610ab7565b610632565b9050919050565b610b6581610b3a565b82525050565b6000606082019050610b806000830186610a1d565b8181036020830152610b928185610a74565b9050610ba16040830184610b5c565b94935050505056fea26469706673582212204892989ee08a7f6fc8bdfd60b9885d9c22f7291bf1116377e5eeeb05dc48603b64736f6c634300080d0033",
  "immutableReferences": {},
  "source": "// SPDX-License-Identifier: MIT\npragma solidity >=0.4.22 <0.9.0;\n\ncontract Vault {\n    mapping(address => uint256) isExist;\n    mapping(address => uint256) balances;\n    mapping(address => bytes32) password;\n\n    event Register(address from, string password, uint256 status);\n    event Transfer(address from, address to, uint256 amount);\n\n    constructor() {}\n\n    function register(string memory pwd) public returns (uint256) {\n        bytes32 p = keccak256(abi.encodePacked(pwd));\n\n        if (isExist[msg.sender] == 1) {\n            emit Register(msg.sender, pwd, 0);\n            return 0;\n        }\n        isExist[msg.sender] = 1;\n        password[msg.sender] = p;\n        emit Register(msg.sender, pwd, 1);\n\n        return 1;\n    }\n\n    function login(string memory pwd) public view returns (uint256) {\n        bytes32 p = keccak256(abi.encodePacked(pwd));\n\n        if (isExist[msg.sender] == 0) return 0;\n\n        if (p != password[msg.sender]) return 1;\n\n        return 2;\n    }\n\n    function deposit() public payable {\n        require(msg.sender != address(0));\n        require(msg.value != 0);\n\n        balances[msg.sender] += msg.value;\n    }\n\n    function transfer(address to, uint256 amount) public {\n        require(to != address(0));\n        require(amount != 0);\n        require(balances[msg.sender] >= amount);\n        require(isExist[to] == 1);\n\n\n        balances[msg.sender] -= amount;\n        balances[to] += amount;\n\n        emit Transfer(msg.sender, to, amount);\n    }\n\n    function balanceOfMe() public view returns (uint256) {\n        return balances[msg.sender];\n    }\n}\n",
  "sourcePath": "/Volumes/macData/Workspace/dapp/src/contracts/Vault.sol",
  "compiler": {
    "name": "solc",
    "version": "0.8.13+commit.abaa5c0e.Emscripten.clang"
  },
  "schemaVersion": "3.4.6",
  "updatedAt": "2022-07-08T15:03:40.081Z",
  "networkType": "ethereum",
  "devdoc": {
    "kind": "dev",
    "methods": {},
    "version": 1
  },
  "userdoc": {
    "kind": "user",
    "methods": {},
    "version": 1
  }
}