{
  "contractName": "Token",
  "abi": [
    {
      "inputs": [],
      "stateMutability": "nonpayable",
      "type": "constructor"
    },
    {
      "anonymous": false,
      "inputs": [
        {
          "indexed": false,
          "internalType": "address",
          "name": "from",
          "type": "address"
        },
        {
          "indexed": false,
          "internalType": "address",
          "name": "to",
          "type": "address"
        },
        {
          "indexed": false,
          "internalType": "uint256",
          "name": "amount",
          "type": "uint256"
        }
      ],
      "name": "Transfer",
      "type": "event"
    },
    {
      "inputs": [
        {
          "internalType": "bytes",
          "name": "username",
          "type": "bytes"
        },
        {
          "internalType": "bytes",
          "name": "password",
          "type": "bytes"
        }
      ],
      "name": "register",
      "outputs": [
        {
          "internalType": "int256",
          "name": "",
          "type": "int256"
        }
      ],
      "stateMutability": "nonpayable",
      "type": "function"
    },
    {
      "inputs": [
        {
          "internalType": "bytes",
          "name": "username",
          "type": "bytes"
        },
        {
          "internalType": "bytes",
          "name": "password",
          "type": "bytes"
        }
      ],
      "name": "login",
      "outputs": [
        {
          "internalType": "int256",
          "name": "",
          "type": "int256"
        }
      ],
      "stateMutability": "view",
      "type": "function",
      "constant": true
    },
    {
      "inputs": [],
      "name": "deposit",
      "outputs": [],
      "stateMutability": "payable",
      "type": "function",
      "payable": true
    },
    {
      "inputs": [
        {
          "internalType": "address",
          "name": "to",
          "type": "address"
        },
        {
          "internalType": "uint256",
          "name": "amount",
          "type": "uint256"
        }
      ],
      "name": "transfer",
      "outputs": [],
      "stateMutability": "nonpayable",
      "type": "function"
    }
  ],
  "bytecode": "0x608060405234801561001057600080fd5b5060008081905550610b19806100276000396000f3fe60806040526004361061003f5760003560e01c8063a3747fef14610044578063a9059cbb14610081578063d0e30db0146100aa578063f2fbfa53146100b4575b600080fd5b34801561005057600080fd5b5061006b600480360381019061006691906107de565b6100f1565b604051610078919061086f565b60405180910390f35b34801561008d57600080fd5b506100a860048036038101906100a3919061091e565b61029b565b005b6100b2610418565b005b3480156100c057600080fd5b506100db60048036038101906100d691906107de565b6104b6565b6040516100e8919061086f565b60405180910390f35b600080838051906020012090506000838051906020012090506000600160003373ffffffffffffffffffffffffffffffffffffffff1673ffffffffffffffffffffffffffffffffffffffff168152602001908152602001600020540361017b577fffffffffffffffffffffffffffffffffffffffffffffffffffffffffffffffff92505050610295565b60006002600084815260200190815260200160002054036101c0577ffffffffffffffffffffffffffffffffffffffffffffffffffffffffffffffffe92505050610295565b6000808154809291906101d29061098d565b9190505550600054600160003373ffffffffffffffffffffffffffffffffffffffff1673ffffffffffffffffffffffffffffffffffffffff1681526020019081526020016000208190555060005460026000848152602001908152602001600020819055506003604051806040016040528084815260200183815250908060018154018082558091505060019003906000526020600020906002020160009091909190915060008201518160000155602082015181600101555050600054925050505b92915050565b600073ffffffffffffffffffffffffffffffffffffffff168273ffffffffffffffffffffffffffffffffffffffff16036102d457600080fd5b600081036102e157600080fd5b80600460003373ffffffffffffffffffffffffffffffffffffffff1673ffffffffffffffffffffffffffffffffffffffff16815260200190815260200160002054101561032d57600080fd5b80600460003373ffffffffffffffffffffffffffffffffffffffff1673ffffffffffffffffffffffffffffffffffffffff168152602001908152602001600020600082825461037c91906109d5565b9250508190555080600460008473ffffffffffffffffffffffffffffffffffffffff1673ffffffffffffffffffffffffffffffffffffffff16815260200190815260200160002060008282546103d29190610a09565b925050819055507fddf252ad1be2c89b69c2b068fc378daa952ba7f163c4a11628f55a4df523b3ef33838360405161040c93929190610a7d565b60405180910390a15050565b600073ffffffffffffffffffffffffffffffffffffffff163373ffffffffffffffffffffffffffffffffffffffff160361045157600080fd5b6000340361045e57600080fd5b34600460003373ffffffffffffffffffffffffffffffffffffffff1673ffffffffffffffffffffffffffffffffffffffff16815260200190815260200160002060008282546104ad9190610a09565b92505081905550565b600080838051906020012090506000838051906020012090506000600160003373ffffffffffffffffffffffffffffffffffffffff1673ffffffffffffffffffffffffffffffffffffffff1681526020019081526020016000205403610540577fffffffffffffffffffffffffffffffffffffffffffffffffffffffffffffffff9250505061067e565b6000600260008481526020019081526020016000205403610585577ffffffffffffffffffffffffffffffffffffffffffffffffffffffffffffffffe9250505061067e565b6000600160003373ffffffffffffffffffffffffffffffffffffffff1673ffffffffffffffffffffffffffffffffffffffff168152602001908152602001600020549050600381815481106105dd576105dc610ab4565b5b9060005260206000209060020201600001548314610620577ffffffffffffffffffffffffffffffffffffffffffffffffffffffffffffffffd935050505061067e565b6003818154811061063457610633610ab4565b5b9060005260206000209060020201600101548214610677577ffffffffffffffffffffffffffffffffffffffffffffffffffffffffffffffffc935050505061067e565b8093505050505b92915050565b6000604051905090565b600080fd5b600080fd5b600080fd5b600080fd5b6000601f19601f8301169050919050565b7f4e487b7100000000000000000000000000000000000000000000000000000000600052604160045260246000fd5b6106eb826106a2565b810181811067ffffffffffffffff8211171561070a576107096106b3565b5b80604052505050565b600061071d610684565b905061072982826106e2565b919050565b600067ffffffffffffffff821115610749576107486106b3565b5b610752826106a2565b9050602081019050919050565b82818337600083830152505050565b600061078161077c8461072e565b610713565b90508281526020810184848401111561079d5761079c61069d565b5b6107a884828561075f565b509392505050565b600082601f8301126107c5576107c4610698565b5b81356107d584826020860161076e565b91505092915050565b600080604083850312156107f5576107f461068e565b5b600083013567ffffffffffffffff81111561081357610812610693565b5b61081f858286016107b0565b925050602083013567ffffffffffffffff8111156108405761083f610693565b5b61084c858286016107b0565b9150509250929050565b6000819050919050565b61086981610856565b82525050565b60006020820190506108846000830184610860565b92915050565b600073ffffffffffffffffffffffffffffffffffffffff82169050919050565b60006108b58261088a565b9050919050565b6108c5816108aa565b81146108d057600080fd5b50565b6000813590506108e2816108bc565b92915050565b6000819050919050565b6108fb816108e8565b811461090657600080fd5b50565b600081359050610918816108f2565b92915050565b600080604083850312156109355761093461068e565b5b6000610943858286016108d3565b925050602061095485828601610909565b9150509250929050565b7f4e487b7100000000000000000000000000000000000000000000000000000000600052601160045260246000fd5b6000610998826108e8565b91507fffffffffffffffffffffffffffffffffffffffffffffffffffffffffffffffff82036109ca576109c961095e565b5b600182019050919050565b60006109e0826108e8565b91506109eb836108e8565b9250828210156109fe576109fd61095e565b5b828203905092915050565b6000610a14826108e8565b9150610a1f836108e8565b9250827fffffffffffffffffffffffffffffffffffffffffffffffffffffffffffffffff03821115610a5457610a5361095e565b5b828201905092915050565b610a68816108aa565b82525050565b610a77816108e8565b82525050565b6000606082019050610a926000830186610a5f565b610a9f6020830185610a5f565b610aac6040830184610a6e565b949350505050565b7f4e487b7100000000000000000000000000000000000000000000000000000000600052603260045260246000fdfea2646970667358221220c202c5be0c6092355b8dbcdc973b0cc0bd37f44ee27d5a4eb69b957b3c65cf1d64736f6c634300080d0033",
  "immutableReferences": {},
  "source": "// SPDX-License-Identifier: MIT\npragma solidity >=0.4.22 <0.9.0;\n\ncontract Token {\n    struct User {\n        bytes32 username;\n        bytes32 password;\n    }\n    uint256 lastUserId;\n    mapping(address => uint256) addrIndex;\n    mapping(bytes32 => uint256) nameIndex;\n    User[] users;\n\n    event Transfer(address from, address to, uint256 amount);\n\n    mapping(address => uint256) balances;\n\n    constructor() {\n        lastUserId = 0;\n    }\n\n    function register(bytes memory username, bytes memory password)\n        public\n        returns (int256)\n    {\n        bytes32 usr = keccak256(username);\n        bytes32 pwd = keccak256(password);\n\n        if (addrIndex[msg.sender] == 0) return -1;\n        if (nameIndex[usr] == 0) return -2;\n\n        lastUserId++;\n        addrIndex[msg.sender] = lastUserId;\n        nameIndex[usr] = lastUserId;\n        users.push(User(usr, pwd));\n        return int256(lastUserId);\n    }\n\n    function login(bytes memory username, bytes memory password)\n        public\n        view\n        returns (int256)\n    {\n        bytes32 usr = keccak256(username);\n        bytes32 pwd = keccak256(password);\n\n        if (addrIndex[msg.sender] == 0) return -1;\n        if (nameIndex[usr] == 0) return -2;\n\n        uint256 ind = addrIndex[msg.sender];\n        if (usr != users[ind].username) return -3;\n        if (pwd != users[ind].password) return -4;\n\n        return int256(ind);\n    }\n\n    function deposit() public payable {\n        require(msg.sender != address(0));\n        require(msg.value != 0);\n\n        balances[msg.sender] += msg.value;\n    }\n\n    function transfer(address to, uint256 amount) public {\n        require(to != address(0));\n        require(amount != 0);\n        require(balances[msg.sender] >= amount);\n\n        balances[msg.sender] -= amount;\n        balances[to] += amount;\n\n        emit Transfer(msg.sender, to, amount);\n    }\n}\n",
  "sourcePath": "/Volumes/macData/Workspace/dapp/contracts/Token.sol",
  "compiler": {
    "name": "solc",
    "version": "0.8.13+commit.abaa5c0e.Emscripten.clang"
  },
  "schemaVersion": "3.4.6",
  "updatedAt": "2022-07-08T02:38:26.520Z",
  "networkType": "ethereum",
  "devdoc": {
    "kind": "dev",
    "methods": {},
    "version": 1
  },
  "userdoc": {
    "kind": "user",
    "methods": {},
    "version": 1
  }
}